:020000040800F2
:10000000A01900204D020008B1280008612800084E
:10001000AD2800084B1A0008E1300008000000007D
:10002000000000000000000000000000792A000825
:1000300089270008000000002D290008B12C0008C5
:1000400067020008670200086702000867020008EC
:1000500067020008670200086702000867020008DC
:1000600067020008670200086702000867020008CC
:1000700067020008CD230008670200086702000835
:1000800067020008670200086702000867020008AC
:10009000670200086702000867020008670200089C
:1000A000670200086702000867020008670200088C
:1000B00067020008352D0008670200086702000883
:1000C000670200086702000867020008670200086C
:1000D000670200086702000867020008670200085C
:1000E000670200086702000867020008670200084C
:1000F000670200086702000867020008670200083C
:10010000670200086702000867020008670200082B
:10011000670200086702000867020008670200081B
:10012000670200086702000867020008670200080B
:1001300067020008670200086702000867020008FB
:1001400067020008670200086702000867020008EB
:1001500067020008670200086702000867020008DB
:1001600067020008670200086702000867020008CB
:1001700067020008670200086702000867020008BB
:10018000670200086702000800F002F800F04FF86C
:100190000AA090E8000C82448344AAF10107DA45E2
:1001A00001D100F044F8AFF2090EBAE80F0013F0E5
:1001B000010F18BFFB1A43F001031847704B0000F2
:1001C000904B0000103A24BF78C878C1FAD8520783
:1001D00024BF30C830C144BF04680C6070470000C1
:1001E0000023002400250026103A28BF78C1FBD840
:1001F000520728BF30C148BF0B607047692900F023
:100200009380002070471FB504F02BFC00F0CEFC5B
:1002100004000020002103F021FE401C606000204B
:10022000002103F005FEE0601FBD10B510BD00F019
:10023000C9F91146FFF7E7FF03F070FD00F06CFC11
:1002400003B4FFF7F2FF03BC00F050FF09488047FA
:1002500009480047FEE7FEE7FEE7FEE7FEE7FEE7A8
:10026000FEE7FEE7FEE7FEE704480549054A064BC0
:1002700070470000CD2C000889010008A013002061
:10028000A0190020A0150020A01500200FB41CB557
:100290000C0007AA009001D02044401E074B7B446D
:1002A00069460190069800F0E8F8002C03D06946F2
:1002B000002000F0F5F81CBC5DF814FB09020000FA
:1002C0002DE9F0410E460446002020622046E168F8
:1002D000884730B3252805D0D4E901219047206A0A
:1002E000401CF2E7E168204600278847050018D047
:1002F000A5F14100192802D820354FF40067324695
:10030000294620462760FFF779FF40B1012804D035
:10031000F61D26F007060836D8E7361DD6E728462C
:10032000DAE7206ABDE8F0812DE9F04106460024B5
:1003300010687529314616A510D0AFF3008000284B
:1003400002DA404213A507E031688A0701D512A5F9
:1003500002E0490704D511A5012401E0AFF30080B4
:1003600000210A2206F1240709E0B0FBF2FCB0FBF1
:10037000F2F302FB1C00303078541846491C002868
:10038000F3D123462A463046BDE8F04100F016B8C6
:10039000000000002D0000002B00000020000000E5
:1003A00070477047704710B500F0DAF8006810BD6C
:1003B00010B5044600F0D4F8046010BD2DE9F047F4
:1003C0000D4699469246044600F1240801688806C5
:1003D00004D5E06921F01001216000E00120A8426D
:1003E00001DD471B00E00027A1697A1902EB090033
:1003F000081AA0612078C00602D42046AFF300801E
:10040000002608E0D4E901211AF806009047206A86
:10041000401C761C20624E45F4DB2078C0060AD5CD
:100420002046AFF3008006E0D4E901213020904758
:10043000206A401C2062381EA7F10107F4DC07E0A7
:10044000D4E9012118F805009047206A401C206279
:10045000281EA5F10105F3DC2046AFF300802078CB
:10046000000602D50220BDE8F0870120FBE700006E
:1004700001694A1C02610878704700B58FB0CDE968
:1004800001310021059105497944CDE90310114658
:100490006846FFF715FF0FB000BD0000E5FFFFFF46
:1004A0000A6802F8010B0A607047D1E900239A42FA
:1004B00002D2531C0B601070704700000FB4002371
:1004C00000B589B00CA900910B99CB60214B7B44FE
:1004D0000693214B7B44079304236FF00042CDE940
:1004E00001321E4A7A446B4608920246002004F00C
:1004F00025FB09B05DF814FB70B506464FF0FF30E0
:1005000015460C46324686B00091CDE90101694698
:100510000020049004A8FFF7D1FF02460498211898
:1005200025B108B1084600E020462860049800285C
:100530000DD0002A02DD0098884208D03246081B00
:1005400069460094CDE9010404A8FFF7B7FF06B09F
:1005500070BD0000A9000000C10000008100000083
:10056000004870474013002010B5044600F050F8D2
:100570000068005D00F0010010BD426842B10168F2
:1005800011F8013B23B1521EC0E900121846704712
:100590000121C160881E704742685AB1C368016872
:1005A00043B983688B4205D0491E521CC0E9001232
:1005B000002070474FF0FF30704700000048704740
:1005C000401300207546FFF7F9FFAE460500694667
:1005D000534620F00700854618B020B5FFF744FECB
:1005E000BDE820404FF000064FF000074FF0000834
:1005F0004FF0000B21F00701AC46ACE8C009ACE8B5
:10060000C009ACE8C009ACE8C0098D4670470000DD
:1006100010B500F0CBFA001D10BD00BF413800003E
:100620002DE9FF4F06468BB00878FF2806D0491CFD
:100630002D2805D000244FF0000908E000200CE030
:100640000124F8E709EB8903491C00EB430908780A
:10065000FF28F7D114B1C9F10000814610780025B8
:100660002C46AA4629462D2801D02B2804D1521CFD
:100670002D2813D0002082468B461078FF280FD0FB
:100680004FF0000C0A21521CA5FB017804FB0181EC
:1006900005FB0C11C5194BEB0104EEE70120EAE75D
:1006A000002108464FF00000BAF1000F02D000EB25
:1006B00080004008C0F38157012F01DD4FF0FF3764
:1006C0000E9955EA040009EB01080BD04FF002091E
:1006D00018F5FA7F16DA4FEACA70002F706008DD4D
:1006E000012007E04FEACA70C6E900B00FB0BDE8CC
:1006F000F08F00203060FFF733FFC0F80090182122
:10070000084616E0B8F5FA7F18DD002F02DAF74840
:10071000784401E0F6487844D0E90010C6E90010BA
:1007200040EACA707060FFF71BFFC0F80090142108
:1007300008460FB0BDE8F04F04F09DB9002108460F
:100740004FF00000B8F10001099002DAC7F1000291
:1007500000E03A4601DAC8F1000106A800F02AFAE2
:1007600006AB93E8070003AB83E8070044F23E00C2
:100770005BEA04010090584604D144F21E012C4665
:100780005D460091210C0904014306D1009924041F
:1007900044EA15442D041039009104F07F410143CF
:1007A00006D10099240244EA15642D02083900910B
:1007B00004F07041014306D10099240144EA157404
:1007C0002D01091F009104F04041014306D1009919
:1007D000A40044EA9574AD00891E009104F0004124
:1007E000084304D100986D196441401E00904FF0F9
:1007F00001033A466846B8F1000FCDE9014503A967
:1008000002DD00F026FF01E000F0F9FEBAF1000F72
:1008100004460D4601D084F00044002108464FF004
:100820000000099940F2FF77484010F00C0F07D103
:1008300024F00040284303D0C4F30A50B84212D138
:10084000FFF78EFEC0F80090C4F30A50B8420AD1F8
:10085000A8487844D0E90010C6E9001004F000412F
:100860000843706042E7C6E900543FE72DE9FF4FB7
:100870001F464FF0000A4FF0FF38454691B0D7E9C8
:100880000146CDF83CA000F091F9C0680168405CD9
:100890001090B96912986D1C8847396A814688475B
:1008A0000028F6D1B9F1FF3F0AD0002E24F4D0641D
:1008B00011DDB9F12B0F08D0B9F12D0F0BD102E0EA
:1008C000404615B013E744F48064B96912986D1C72
:1008D0008847761E8146600504A901D52D2000E0D9
:1008E0002B20002E01F1010B0DF130088DF81000C6
:1008F0003FDDB9F1690F08D0B9F1490F05D0B9F161
:100900006E0F02D0B9F14E0F1CD13B4601A80095E5
:1009100080E85002DDE912126FF0020004F012F9D3
:10092000C11CCED10EE0B96912986D1C8847814672
:100930001398761E44F4007405600F98401C002E36
:100940000F9016DDB9F1300FEDD0B9F1780F02D06C
:10095000B9F1580F0DD10F9801280AD13B46CDE9C6
:100960000054DDE91212001F029604F0E9F8C11CE0
:10097000A7D1109989453ED144F0800406E013992F
:10098000681CAAF1010A44F400740860B9696D1C7E
:100990001298761E884730288146F0D02BE01099B7
:1009A000894505D1200603D4761E44F0800418E062
:1009B000484603F058F908B3761E0DF123018B4524
:1009C00044F4007408D2A9F130000BF8010B2006A2
:1009D00007D5AAF1010003E0200602D40AF10100C4
:1009E0008246A00502D51399681C0860B96912985F
:1009F0006D1C88478146002ED1DC53E0002E51DD6E
:100A0000B9F1650F02D0B9F1450F4BD1A00549D519
:100A1000B9696D1C1298761E24F440748847002E24
:100A200081460CDD2B2804D0B9F12D0F07D144F4F9
:100A30008074B96912986D1C8847761E8146E0055E
:100A400001D52D2100E02B2108F8011BCDF80080F5
:100A500021E0761E0DF13901884544F400740CD272
:100A6000A9F1300010F0FF0088F8000002D10099D1
:100A7000884509D908F1010806E0E00501D51E48BE
:100A800001E042F20F708246B96912986D1C8847E6
:100A9000814613980560002E04DD484603F0E3F814
:100AA0000028D6D1F96912988847FF2053468BF861
:100AB000000088F8000000200A900B9004AA0CA9FE
:100AC0000AA8FFF7ADFDA00502D46FF00100F8E61B
:100AD00014F0240F12D0E0071CD13868DDE90A12A7
:100AE000031D3B600068C0E9001213E040460000AF
:100AF00032460000F6440000F1D8FFFF0AA968461C
:100B000003F09EF8E00705D13868009A011D3960AE
:100B1000006802602846D4E610B50446AFF30080B2
:100B20002046BDE81040FFF78BBB00004FF0013CB2
:100B300050F8042B51F8043B9A4221D1A2EB0C034C
:100B4000934313EACC1317D150F8042B51F8043B0C
:100B50009A4215D1A2EB0C03934313EACC130BD1A9
:100B600050F8042B51F8043B9A4209D1A2EB0C0334
:100B7000934313EACC13DBD04FF00000704700BF63
:100B8000D01A01BAB1FA81F101F0180122FA01F08C
:100B9000CB40C1F12001DBB2C0B2C01A2CFA01F384
:100BA000D11A914311EAC311E6D17047004870474A
:100BB000601300202DE9F047814616468AB035487B
:100BC00078440DC88DE80D0032487844801C03AC91
:100BD0000DC884E80D0041F69B300844372190FB96
:100BE000F1F290FBF1F5A5F1800501FB12041B3C2D
:100BF00002D56442012000E00020DFF898A0804682
:100C00000027FA44AAF1BE0A0EE0E0070AD03246F5
:100C1000684607EB470101230AEB810100F004FD60
:100C20008DE8070064107F1C002CEED1194F7F4423
:100C3000AE3F19E0E80715D007EB04100DF1180AD4
:100C400090E80E008AE80E00C068F04201D19819C1
:100C500008903246012306A903A800F0E5FC03AB87
:100C600083E807006D10641C002DE3D14FF00103F1
:100C700032466946B8F1000F03A802D000F0AAFC82
:100C800001E000F0D1FCC9E90001C9F808200AB070
:100C9000BDE8F087504100002DE9FF4F1F464FF09F
:100CA0003C0987B04FF00042DDE9141001F1010862
:100CB000DDF858A002EA40500390002005908346DA
:100CC000054604460490B969461E08988847AAF16B
:100CD000010A0290BAF1000F3BDD02982E2815D0D0
:100CE000102100F01CFA00282EDB4FF0010B0599B3
:100CF000014317D0B9F1000F0BDB4A46C11700F0D2
:100D0000FBF905430C43A9F1040905E00120049017
:100D10000BE008B145F0010501200590049820B9C9
:100D2000361D02E0049800B1361FB969089808F131
:100D300001088847BBF1000FAAF1010A0290C9D04F
:100D40000999C1F80080C5E70298702808D050289A
:100D500006D0F96908988847BBF1000F14D04FE01E
:100D6000002002900120BBF1000F049009D0B96966
:100D7000089808F101088847AAF10109B9F1000FA4
:100D800007DCF969089888476FF001000BB0BDE8EF
:100D9000F08F2B2804D02D280CD14FF0FF30049079
:100DA000B969089808F101088847A9F10109B9F162
:100DB000000FE6DD411CE4D00A2100F0B0F9002864
:100DC000DFDB029908F1010801EB810100EB410032
:100DD0000290B969089888470A2100F0A0F9099A99
:100DE000A9F10109B9F1000FC2F8008001DD002866
:100DF000E7DAF969089888470499029800FB0166C8
:100E000055EA040004D004F04041090002D006E095
:100E1000039898E0A40044EA9574AD00B61E04F06F
:100E20000041080002D16D196441761E159810F03A
:100E3000240F03D04FF00B095C4803E04FF0280962
:100E40006FF07D008246564507DAAAEB0601894419
:100E5000B9F1410F01DD4FF0410901200021A9F155
:100E6000010200F049F9024628400B4621400843A0
:100E700001D0012100E00021501E029143F1FF3119
:100E800028402140084301D0012000E000200299C1
:100E9000834651EA0B014FD0002108464FF0000075
:100EA000039900F4400039B100EB80004FF4400199
:100EB00000EBD07001EA60008015012802DD4FF0E0
:100EC000FF3000E013D0401C36D0029860B3BBF175
:100ED000000F0CD14A460120002100F00DF92840F6
:100EE0002140084301D0012000E00020E0B10120B2
:100EF0004A46002100F000F9034640190A466141C4
:100F00002D1A8C4111D3B9F1400F09DD159810F05D
:100F1000240F02D0AAF1340603E0AAF1170600E07C
:100F2000761C00254FF0004406E05B1E42F1FF32C4
:100F300020EA030521EA0204CAF10100B04206DA00
:100F40001B49039808430190002000900EE0039A8B
:100F5000C4F3D321E80A0A43164940EA44500A433D
:100F60003146CDE90002684602F073FE159810F094
:100F7000240F0BD01598C00715D13868DDE9001291
:100F8000031D3B600068C0E900120CE002A869463E
:100F900002F056FE1598C00705D13868029A011D67
:100FA0003960006802604046F0E6000002FCFFFF86
:100FB0000000F07F0000F03F2DE9FF4F92461D46F4
:100FC00085B04FF00041DDE9124BDDE914727F1E60
:100FD00001EA4B50414940F0FF4940EA0108002135
:100FE00022F020004928049102D04E2828D04CE05D
:100FF0003BA0012607C88DE80700A9690698641C74
:1010000088477F1E014606D41DF8060018B121F05E
:10101000200181420BD0E96906988847032E34D01D
:10102000082E32D06FF0010009B0BDE8F08F761CB9
:10103000032E01D0082EE0D1601CCAF80000DCE7C6
:10104000A9690698641C88477F1E2AD420F02000D6
:10105000412826D1A9690698641C88477F1E20D4A0
:1010600020F020004E281CD1A9690698641C8847EE
:101070007F1E48F4002849F48009CAF8004001D4D2
:10108000282806D0E969069888475FEACB7012D015
:1010900022E0A9690698641C88477F1E01D40028B5
:1010A00003DAE96906988847BCE72928F1D1641C6E
:1010B000CAF80040E9E71BF0240F07D0286804991C
:1010C000031D2B600068C0E9001805E02868021DB8
:1010D0002A600068C0F800902046A5E70000F07F75
:1010E000494E46494E495459000000000149182014
:1010F000ABBEFEE726000200B2F120030AD5C2F122
:10110000200301FA02F120FA03F300FA02F041EAA7
:101110000301704700FA03F14FF0000070473A28CE
:1011200000D2303820F02002412A01D3A2F137004A
:10113000884201D34FF0FF307047704720F07F4C5A
:1011400080EA030023F07F47ACEB070303F57C53F1
:1011500000F0004003F1FF032DE980494FEA154BF1
:1011600009B44FEA144325EA0B4E24EA03480FF270
:10117000042606EB132749083E785FEA320203FB98
:101180000667C7F5000707FB06F64FEA54374FEA34
:10119000D64606F1020607FB066CCCF1005C4FEA6E
:1011A0001C472CEA074C07FB06F40CFB06F504EB86
:1011B00015464FEA961634BF00204FF000404FEA24
:1011C000D13706FB07FC4FEA1C4C0CFB0BF7D21B7C
:1011D00003FB0CF761EB07010CFB0EF7B0EB0740CC
:1011E00072EB17420CFB08F734BFA2EB0742B2EBDD
:1011F000074261EB17414FEA0C444FEA910706FBA7
:1012000007FC4FEA1C4C0CFB0BF7B0EBC74072EB32
:10121000573203FB0CF734BFA2EBC742B2EBC74215
:1012200061EB57310CFB0EF7B0EBC70072EB577256
:101230000CFB08F734BFA2EBC702B2EBC70261EBAD
:101240005771039F4FEA816141EA921104EBCC048C
:101250004FEAD1374FEA826206FB07FC42EA90125E
:101260004FEA80604FEA1C4C0CFB0BF7D21B03FBD0
:101270000CF761EB07010CFB0EF7B0EB074072EBCC
:1012800017420CFB08F734BFA2EB0742B2EB074250
:1012900061EB17414FEA8C554FEA910704EB9C2410
:1012A00006FB07FC4FEA1C4C0CFB0BF7B0EBC740EE
:1012B00072EB573203FB0CF734BFA2EBC742B2EB21
:1012C000C74261EB57310CFB0EF7B0EBC70072EB76
:1012D00057720CFB08F734BFA2EBC702B2EBC70290
:1012E00061EB577115EB4C254FEA816141EA921190
:1012F0004FEA82624FEAD13742EA901206FB07FCBE
:1013000044F100044FEA80604FEA1C4C0CFB0BF7E1
:10131000D21B03FB0CF761EB07010CFB0EF7B0EBE4
:10132000074072EB17420CFB08F734BFA2EB0742F1
:10133000B2EB074261EB174115EB1C154FEA813107
:1013400041EA92414FEA823242EA90424FEA8030CB
:101350004FEA0C7644F1000448EA03434EEA0B4896
:101360004FF0000EB2EB080C71EB030724BF62468E
:1013700039464EEB0E0E4FF0000B0018524149411A
:101380004BEB0B0BB2EB080C71EB03077BF1000B83
:1013900024BF624639464EEB0E0E4FF0000B00188C
:1013A000524149414BEB0B0BB2EB080C71EB0307BD
:1013B0007BF1000B24BF624639464EEB0E0E51EA1C
:1013C000020718BF46F0010616EB0E7655F1000233
:1013D00054F1000103D5BDE88901BDE80088BDE8EE
:1013E0008901BDE80048B619524141EB0101A3F162
:1013F0000103704780807F7E7D7C7B7A7978777669
:1014000076757473727171706F6E6E6D6C6C6B6AE1
:101410006A6968686766666564646363626161607F
:10142000605F5F5E5E5D5D5C5C5B5B5A5A595958FC
:101430005857575656555555545453535252525166
:10144000515050504F4F4F4E4E4D4D4D4C4C4C4BBC
:101450004B4B4A4A4A494949484848474747474603
:10146000464645454544444444434343434242423F
:101470004241414146EA0646A3F570534FEA1646FB
:1014800046EA42564FEAD22242EA415210B54FEAAA
:10149000D121A3F1010300F02FF820F0004000F16A
:1014A000020C00F0004701EB00501146BCF5006F44
:1014B00040EA070000D210BDBAF1000F0AD01CB5F7
:1014C00003B44FF004004FF004014FF000000FBCD4
:1014D000BDE810404FF00001BBF1010FB9BF044857
:1014E0004FF0FF310348002140EA070010BD00BF64
:1014F000FFFFEF7F0000F07F002B9C4630D4770089
:101500002BD01CB54FEA370703B44FF010004FF053
:101510001001BAF1000F06D0BCF1000FDCBF40F0A3
:10152000080040F008014FF000000FBCBDE810407B
:101530000BF1010BBBF1010F08BF5FEA170722BFD8
:1015400012F1010211F101014FF0004143F10003DA
:1015500000F0004043EA00007047F9D35708D0E795
:1015600046EA064613F1400F4FEA16461FDD13F117
:10157000200FDFBF16430A46002120335B42BED056
:10158000C3F1200746EA064602FA07F74FEA164675
:1015900046EA0706C3F1200722FA03F201FA07F729
:1015A00021FA03F14FF0000342EA0702A7E746EAF7
:1015B000020646EA06464FEA164646EA0106BCBF60
:1015C00046EA0646360C4FF000034FF000024FF09B
:1015D000000194E72DE9804C9A46934670B491E857
:1015E000380007C831EA400C48BF34EA430C03D541
:1015F000FFF7A4FDFFF780FFF0BCBDE8008C2DE9EC
:10160000804C9A46934670B491E8380007C831EA96
:10161000400C48BF34EA430C03D5FFF78FFDFFF7BA
:1016200029FFF0BCBDE8008C2DE9804C9A4693461A
:1016300070B491E8380007C810F0804F08BF13F06D
:10164000804F03D100F01AF8FFF756FFF0BCBDE859
:10165000008C2DE9804C9A46934670B491E838008E
:1016600007C810F0804F08BF13F0804F03D100F07F
:1016700005F8FFF7FFFEF0BCBDE8008C20F07F47C7
:1016800080EA030023F07F4C07EB0C03A3F57C53A7
:1016900000F00040A3F1FE0392F0000F00F0B380D1
:1016A00095F0000F00F077802DE901494FEA1140D5
:1016B0004FEA144621EA004800FB06FC24EA0647EC
:1016C00008FB06F607FB08F800FB07F718EB0648CF
:1016D0004CEB164C4FEA124B18EB07484FEA1546F5
:1016E0004CEB174022EA0B4E0BFB06FC25EA0647A3
:1016F0000EFB06F607FB0EFE0BFB07F71EEB064E76
:101700004CEB164C4FF000061EEB074E4CEB174B04
:1017100018EB0B0840F1000018EB0E0B58EB00081B
:1017200040F100008F1A4FF000013CBFC943661B17
:1017300014BFB5EB040C00213CBFC943F61B4FEAB4
:1017400017444EEA8E0E27EA04454FEA1C4704FB75
:1017500007622CEA074C05FB07F70CFB05F604FBB8
:101760000CFC16EB074642EB174216EB0C4642EB1D
:101770001C421BEB060658EB0202414146EA9E065C
:1017800001D5BDE80189B619524141EB0101A3F130
:101790000103BDE801894FEA14454FEA114724EAE5
:1017A000054621EA074C05FB07F406FB07F70CFB8F
:1017B00006F105FB0CFC11EB074144EB17444FEA23
:1017C000124711EB0C4144EB1C4422EA074C05FB89
:1017D00007F206FB07F70CFB06F605FB0CFC16EB05
:1017E000074642EB174216EB0C4642EB1C456A18C3
:1017F00054F1000148BF7047B619524141EB010155
:10180000A3F10103704795F0000F37D04FEA114262
:101810004FEA144721EA024624EA074C02FB07F18B
:1018200006FB07F70CFB06F402FB0CFC14EB074469
:1018300041EB17414FEA154714EB0C4441EB1C41B7
:1018400025EA074C02FB07F506FB07F70CFB06F63B
:1018500002FB0CFC16EB074645EB174516EB0C4656
:1018600045EB1C42121951F1000148BF7047B619EF
:10187000524141EB0101A3F1010370474FEA1445C6
:101880004FEA114724EA054621EA074C05FB07F118
:1018900006FB07F70CFB06F24FF0000605FB0CFCFD
:1018A00012EB074241EB174112EB0C4251EB1C418A
:1018B00048BF7047921841EB0101A3F10103704743
:1018C00021B1826842F00102826003E0826822F066
:1018D00001028260704700000021084A1168084A2E
:1018E0001140D0E900231A4383681A43C3681A439E
:1018F0001143044AC2F80413704700000423014056
:10190000E030FCFF0020014021B1826842F4807287
:10191000826003E0826822F480728260704721B1A5
:10192000826842F40072826003E0826822F40072EE
:101930008260704730B50246002000235068104C8A
:1019400020400D790C6844EA0524204350609068DB
:101950000C4C2040D1E903542C438D682C434D7925
:1019600044EA450420439060D06A20F470000C7D66
:10197000641EE4B2234340EA0350D06230BD00004D
:10198000FFFEFFFCFDF7FFC0F0B504460D4600204A
:101990000021092D11DDE068A5F10A0606EB4607D6
:1019A000072606FA07F18843A5F10A0606EB460664
:1019B00003FA06F10843E0600CE0206905EB4507F7
:1019C000072606FA07F1884305EB450603FA06F1F8
:1019D00008432061072A0FDA606B561E06EB860764
:1019E0001F2606FA07F18843561E06EB860605FAFF
:1019F00006F10843606322E00D2A0FDA206BD61F40
:101A000006EB86071F2606FA07F18843D61F06EB6A
:101A1000860605FA06F10843206310E0E06AA2F1A9
:101A20000D0606EB86071F2606FA07F18843A2F18A
:101A30000D0606EB860605FA06F10843E062F0BDE6
:101A4000816841F080418160704700BFFEE700007F
:101A500000B59BB00121084600F06AFF0121080291
:101A600000F086FF0121880500F062FF00208DF85C
:101A700006004020009003208DF805008DF804003A
:101A800000208DF8070069462C4800F07EFE0020FB
:101A900011904FF48030129000201390149011A8F0
:101AA000FFF71AFF002015908DF8580001208DF8DF
:101AB0005900002017901890199001208DF86800A7
:101AC00015A91F48FFF736FF002002901C484C3034
:101AD00003901C48049000200590012006900020EF
:101AE000079008904FF40060099080000A90401120
:101AF0000B9040020C9000200D9001200E900020D1
:101B00000F90109002A9104800F012FE01210E481B
:101B100000F038FD01231A4606210948FFF734FF7B
:101B200001210748FFF7CCFE01210548FFF7F7FE2A
:101B300001210348FFF7E8FE1BB000BD0000024092
:101B400000200140000000201064024000B59BB05E
:101B50000121084600F0ECFE0121480200F008FFD8
:101B60000121880500F0E4FE00208DF86A00802045
:101B7000199003208DF869008DF8680000208DF819
:101B80006B0019A92D4800F000FE00201790159059
:101B90004FF4803016900020189015A8FFF79CFE97
:101BA00001208DF841000020139012901190012027
:101BB0008DF8500000200F908DF840000FA92048AC
:101BC000FFF7B8FE4FF0007000901D484C300190B8
:101BD0001C480290002003900120049000200590F2
:101BE00006904FF400600790800008904011099023
:101BF00040020A9000200B9001200C9000200D90D4
:101C00000E906946104800F093FD01210E4800F047
:101C1000B9FC01231A4607210948FFF7B5FE012147
:101C20000748FFF74DFE01210548FFF778FE012127
:101C30000348FFF769FE1BB000BD00000000024032
:101C400000210140020000204064024000B595B030
:101C50000121480500F06CFE0121084600F068FEF5
:101C60000121480700F074FE00208DF8520010207A
:101C7000139002208DF8510003208DF850000020B1
:101C80008DF8530013A9204800F07FFD14200F9019
:101C90000020109012900FA900F07EFB1B4800F06E
:101CA0007DFC4FF060600090194801901948029047
:101CB0004FF47A7004904FF4006007908000089011
:101CC00040200390002005904FF480600690801023
:101CD000099040020A9000200B9001200C900020F7
:101CE0000D900E906946094800F022FD0121074839
:101CF00000F048FC0121002000F024FB012100201D
:101D000000F034FB15B000BD0000024088600240C6
:101D1000087400404800002000B595B00121084635
:101D200000F006FE0121480700F012FE01214805DF
:101D300000F0FEFD00208DF85200202013900220BC
:101D40008DF8510003208DF8500000208DF85300CD
:101D500013A9214800F019FD04200F9000201090D5
:101D600012900FA9102000F017FB1C4800F016FC81
:101D70004FF0606000901A4801901A4802904FF4AA
:101D80007A7004904FF40060079080000890402023
:101D90000390002005904FF4806006908010099019
:101DA00040020A9000200B9001200C9000200D9022
:101DB0000E906946094800F0BBFC0121074800F07D
:101DC000E1FB0121102000F0BDFA0121102000F0FC
:101DD000CDFA15B000BD000000000240A060024036
:101DE00014740040180800201FB50121022000F0E3
:101DF000AFFD42F2CF00ADF8040040F28F10029028
:101E00000020ADF80C00ADF8060001A90F4800F065
:101E1000D3FF012211460D4800F0BCFF01210B4801
:101E200000F09BFF1D208DF8000000208DF80100C0
:101E30008DF8020001208DF80300684600F03AFD9D
:101E40000121024800F089FF1FBD0000000400408E
:101E50000EB50121102000F07BFD40F2A310ADF87B
:101E6000000040F2E73001900020ADF80800ADF826
:101E700002006946054800F09FFF2021034800F05A
:101E800092FF0121014800F068FF0EBD00100040E4
:101E90000EB50121202000F05BFD40F2A310ADF84B
:101EA000000040F2E73001900020ADF80800ADF8E6
:101EB00002006946054800F07FFF2021034800F03A
:101EC00072FF0121014800F048FF0EBD00140040E0
:101ED00000B597B00121084600F02AFD0121C80491
:101EE00000F036FD0121480500F022FD0822002106
:101EF000554800F092FC08220121534800F08DFC67
:101F00000120159002208DF8580000208DF85A000D
:101F100001208DF85B0002208DF8590015A94A4870
:101F200000F033FC022015908DF8580015A94648A2
:101F300000F02BFC4FF4E13011900020ADF8480088
:101F4000ADF84A00ADF84C00ADF850000C20ADF8EB
:101F50004E0011A93D4801F059F801213B4801F01C
:101F60003FF801224021394801F046F80122802142
:101F7000364801F041F84FF0006002903348001DF0
:101F8000039033480490002005901E200690002006
:101F900007904FF480600890002009900A900B9001
:101FA0004FF400300C9000200D9001200E90002086
:101FB0000F90109002A9274800F0BAFB0121254894
:101FC00000F0E0FA2348303000F0E8FA4FF000600B
:101FD00002901E48001D03901F4804904020059069
:101FE00019200690002007904FF480600890002090
:101FF00009900A900B904FF400300C9000200D9047
:1020000001200E9000200F90109002A9114830304E
:1020100000F08EFB01210F48303000F0B3FA0D20A4
:102020008DF8040000208DF805008DF806000120D1
:102030008DF8070001A800F03DFC012210210548A1
:1020400000F058FB17B000BD00000240004C0040FB
:10205000E80F0020406002400610002070B52DED12
:10206000028B534890ED000AB5EEC00AF1EE10FA6B
:1020700003D29FED500A80ED000A4D4890ED000A12
:10208000F0EE080AB4EEE00AF1EE10FA03DDB0EE6D
:10209000080A80ED000A4848006802F071FC41EC33
:1020A000180B9FED460B53EC102B02F003FA04D2F1
:1020B0009FED440A404880ED000A3F4890ED000A39
:1020C000F2EE040AB4EEE00AF1EE10FA03DDB2EE2D
:1020D000040A80ED000A3C48007830B101280BD09A
:1020E000022810D003281CD114E0314890ED000ADA
:1020F000364800F039FD18E02D4890ED000A3348CD
:1021000000F0B6FD11E02A4890ED000A2F4800F0DB
:1021100023FF0AE0264890ED000A2C4800F0A2FBBD
:1021200003E02A4800F0DEFF00BF00BF01240025C5
:102130000A2418E000EE104AB8EE400A1E48D0ED1E
:10214000000A20EE200ADFED220A80EE801ABCEEA3
:10215000C10A10EE105A0A2D04D341F2883085428C
:1021600000D802E0641C142CE4D900BF00201949F7
:102170000880C4EBC40000EB40000121C1EB8000EB
:10218000144928310880681E091D08600020114983
:102190002431086001200F49143108800020091FF4
:1021A000088001200B490880BDEC028B70BD000047
:1021B0000C00002000000000100000207B14AE473F
:1021C000E17A843F0AD7233C080000204800002021
:1021D00000007A440014004070B52DED028B4F488A
:1021E00090ED000AB5EEC00AF1EE10FA03D29FEDB1
:1021F0004C0A80ED000A494890ED000AF0EE080A0A
:10220000B4EEE00AF1EE10FA03DDB0EE080A80ED5C
:10221000000A4448006802F0B3FB41EC180B9FED44
:10222000420B53EC102B02F045F904D29FED400A0B
:102230003C4880ED000A3B4890ED000AF2EE040AAB
:10224000B4EEE00AF1EE10FA03DDB2EE040A80ED1E
:10225000000A3848007830B101280BD0022810D08D
:1022600003281CD114E02D4890ED000A324800F0FC
:102270007BFC18E0294890ED000A2F4800F0F8FC9C
:1022800011E0264890ED000A2B4800F065FE0AE0B8
:10229000224890ED000A284800F0E4FA03E02648BE
:1022A00000F020FF00BF00BF012400250A2418E031
:1022B00000EE104AB8EE400A1A48D0ED000A20EEAF
:1022C000200ADFED1E0A80EE801ABCEEC10A10EE75
:1022D000105A0A2D04D341F28830854200D802E01A
:1022E000641C142CE4D900BF002015490880C4EBFD
:1022F000C40000EB40000121C1EB800010490885BB
:10230000681EC8620020486201208882002008827E
:1023100001200880BDEC028B70BD0000140000207D
:1023200000000000180000207B14AE47E17A843FD3
:102330000AD7233C090000201808002000007A4436
:102340000010004039B1084A1268012383401A4343
:10235000054B1A6006E0044A1268012383409A4341
:10236000014B1A60704700000074004041B1094AF7
:1023700012684FF4805383401A43064B1A6007E0FB
:10238000044A12684FF4805383409A43014B1A6009
:10239000704700000074004030B5002200230A4C52
:1023A000226840F6FE748440A243D1E900452C43E4
:1023B0008D682C43CD6844EA050303FA00F42243F8
:1023C000014C226030BD0000007400402DE9F04156
:1023D0002DED028B4449454800F0BAF8002005E095
:1023E0004349095C434A1154411CC8B21E28F7DB1B
:1023F000002700240025002600BF3CE0002421E047
:102400003C48005D7C2804D03A48005D3A490855B4
:1024100016E0002038490855384800EB8700384955
:102420000860354800F000FFB0EE408AF0EE608AA8
:1024300051EC180B01F034FD31490968086003E0E4
:10244000601CC4B21E2CDBDB00BF0025601CC6B2C2
:102450000CE02848805D274948551E2D02DA681C8B
:10246000C5B201E0002503E0701CC6B21E2EF0DBF1
:1024700000BF781CC7B2062FC0DB204890ED000AD1
:10248000204880ED000A1D4890ED010A1E4880EDAD
:10249000000A1A4890ED020ABCEEC00A10EE100ABB
:1024A0001A490870154890ED030A194880ED000A92
:1024B000124890ED040A174880ED000A0F4890ED8D
:1024C000050ABCEEC00A10EE100A13490870FFF7A7
:1024D000C5FDFFF781FE0121044800F053F8BDEC73
:1024E000028BBDE8F08100000080201040600240B7
:1024F000E80F0020E71000204B110020B011002051
:10250000040000200C000020100000200800002023
:102510001400002018000020090000200246094B8A
:102520009A4201D2084801E00648103801F00053F1
:102530001BB1064B0B40C36002E0044B0B408360B1
:102540007047000010640240006002407D0F7D0F64
:102550000246094B9A4201D2084801E00648103869
:1025600001F000531BB1064B0B40C36002E0044B6B
:102570000B4083607047000010640240006002401E
:102580007D0F7D0F21B1026842F00102026003E07D
:10259000026822F00102026070470000016821F029
:1025A000010101600021016041608160C160016141
:1025B000212141614A49884204D13D21484A103ACB
:1025C00091608CE046491831884205D14FF474611E
:1025D000434A103A916082E041493031884205D146
:1025E0004FF474113E4A103A916078E03C4948310A
:1025F000884205D14FF07461394A103A91606EE01B
:1026000037496031884204D13649354A103AD160A1
:1026100065E033497831884204D13349304A103A71
:10262000D1605CE02E499031884204D12F492C4A78
:10263000103AD16053E02A49A831884205D14FF0C1
:102640003D51274A103AD16049E02949884204D1D6
:102650003D21274A083A116041E025491831884256
:1026600005D14FF47461224A083A116037E02049DD
:102670003031884205D14FF474111D4A083A116077
:102680002DE01B494831884205D14FF07461184A4A
:10269000083A116023E016496031884204D111499B
:1026A000134A121F11601AE011497831884204D18F
:1026B0000D490F4A121F116011E00D4990318842F7
:1026C00004D10A490A4A121F116008E00849A831DA
:1026D000884204D14FF03D51054A121F11607047E6
:1026E000106002403D000020400F002000003D200F
:1026F0001064024010B501F080034BB122B1436970
:1027000043F08003436103E0436923F080034361A6
:1027100080290BD02AB1036801F01E042343036013
:1027200004E0036801F01E04A343036010BD000031
:1027300010B500220268134B1A40CC680B68234383
:102740004C6923438C692343CC6923430C6A23439C
:102750004C6A23438C6A23434C6B23438C6B234387
:102760001A430260426922F00702D1E90B34234385
:102770001A4342610B6943604B6883608B68C36096
:1027800010BD00003F801CF07047F0B50A460021E4
:102790000023002400BF3DE0012505FA01F3156880
:1027A00005EA03049C4234D105684F000326BE406D
:1027B000B543056015794E00B540066835430560A0
:1027C0001579012D02D01579022D16D185684F009B
:1027D0000326BE40B543856055794E00B5408668F6
:1027E00035438560456801268E40B54345604568A0
:1027F00096798E40B6B235434560C5684F000326D2
:10280000BE40B543C560D5794E00B540C668354376
:10281000C560491C1029BFD3F0BDF0B500230024CA
:102820004D07ED0E02FA05F3CE1000F1200555F824
:1028300026504E07F70E0F26BE40B543CF1000F1CD
:10284000200646F82750CE1000F1200555F82650F6
:1028500045EA0304CE1000F1200545F82640F0BDFE
:1028600000BFFEE70146002018E000EE900AF8EEF7
:10287000E00A60EE200A9FED0B1AC0EE811ADFED30
:102880000A0A61EEA00AB0EE081AC0EE811AFCEE48
:10289000E10A10EE902A21F81020401CB0F57A7F52
:1028A000E3DB704700007A4400F07F4500BFFEE79D
:1028B0007047000070B5002100230F22C4781CB3BC
:1028C000174C246804F4E064C4F5E064C4F3072101
:1028D000C1F10404E3B20A4144789C40E1B2847837
:1028E000144021430C07210E0E4C057861550478E5
:1028F00004F01F050124AC4005786D11AD0005F111
:10290000E025C5F8004109E0047804F01F05012422
:10291000AC40054D0678761145F8264070BD0000A4
:102920000CED00E000E400E080E100E07047000012
:1029300029B1064A12680243044B1A6004E0034AB4
:1029400012688243014B1A60704700003038024021
:1029500029B1064A12680243044B1A6004E0034A94
:1029600012688243014B1A607047000040380240F1
:1029700029B1064A12680243044B1A6004E0034A74
:1029800012688243014B1A607047000044380240CD
:10299000F0B5002100220024022500260223324F38
:1029A0003F6807F00C0121B1042905D0082937D16F
:1029B00005E02E4F076036E02D4F076033E02A4FC9
:1029C0003F1F3F68C7F38056274F3F1F3F6807F000
:1029D0003F036EB1264FB7FBF3F7DFF88CC0ACF1C5
:1029E000040CDCF800C0CCF3881C07FB0CF40CE0F2
:1029F0001E4FB7FBF3F7DFF870C0ACF1040CDCF846
:102A000000C0CCF3881C07FB0CF4174F3F1F3F6836
:102A1000C7F301477F1C7D00B4FBF5F7076002E0B8
:102A2000124F076000BF00BF0F4F3F6807F0F00173
:102A30000909104F7A5C0768D74047600A4F3F6822
:102A400007F4E051890A0B4F7A5C4768D7408760EA
:102A5000054F3F6807F46041490B064F7A5C4768B1
:102A6000D740C760F0BD0000083802400024F400E1
:102A700000127A0038000020704700000CB50020DA
:102A8000019000903448006840F48030324908607A
:102A900000BF3148006800F4003000900198401CED
:102AA0000190009818B90198B0F5A04FF1D12A48CB
:102AB000006800F4003010B10120009001E0002017
:102AC00000900098012846D123484030006840F02B
:102AD00080502149403108602048006840F440405F
:102AE0001E4908601C48083000681B49083108600E
:102AF0000846006840F4004008600846006840F45A
:102B0000A05008601648091F0860081F006840F0C0
:102B10008070091F086000BF0F48006800F0007057
:102B20000028F9D040F205700E4908600A480830C4
:102B3000006820F003000849083108600846006872
:102B400040F00200086000BF03480830006800F051
:102B50000C000828F8D10CBD00380240007000407D
:102B600008544007003C024030B52DED108B89B071
:102B70000546B0EE408A00245FE018EE100A01F02E
:102B8000FFFE41EC1C0B204601F069FC9FED2E0B73
:102B900053EC102BCDE900019DED000B51EC100B17
:102BA00001F0C4FC9FED2A0B53EC102BCDE9020180
:102BB0009DED020B51EC100B01F060FA41EC1F0B84
:102BC000B0EE4F0AF0EE6F0A00F0B2FB8DED040B91
:102BD00018EE100A01F0D4FE41EC1E0B9DED040B23
:102BE00053EC102B01F0A2FC41EC1D0B53EC1C2B01
:102BF00001F088F941EC1B0B9FED170B53EC102BE8
:102C000001F094FC41EC1A0B9FED150B53EC102BCB
:102C100001F034FA41EC190B9FED130B53EC102B20
:102C200001F02CFACDE906019DED060B51EC100BDD
:102C300001F0E8FB25F81400641CB4F57A7F9CDBF6
:102C400009B0BDEC108B30BD50455254FB211940EA
:102C50000000000000408F400000000000FEAF4078
:102C600000000000000008400000000000000040DC
:102C70000146002015E0B0F5FA7F03DA002221F8C2
:102C800010200DE0DFED090A60EE200AB0EE081A10
:102C9000C0EE811AFCEEE10A10EE902A21F8102015
:102CA000401CB0F57A7FE6DB7047000000F07F45FE
:102CB00001200449086004480068401C024908607B
:102CC00070470000340000203000002010B5154887
:102CD000006840F47000134908601348006840F031
:102CE00001001149086000200F49083108600E48B2
:102CF00000680E4908400C4908600D48091D08602D
:102D0000081F006820F48020091F08600020064981
:102D10000C310860FFF7B2FE4FF0006001498039C6
:102D2000086010BD88ED00E000380240FFFFF6FEAD
:102D30001030002410B50121054800F01AF828B120
:102D400000F07CF80121024800F004F810BD0000FA
:102D500000040040CA430282704721B1028842F059
:102D60000102028004E002884FF6FE731A400280DE
:102D7000704730B50246002000230024158A05EA7A
:102D80000103958905EA010413B10CB1012000E0AB
:102D9000002030BD1AB183890B43838102E083890F
:102DA0008B438381704782884FF68F731A408280ED
:102DB00082880A438280704700220288184B98421A
:102DC0000ED0184B98420BD0B0F1804F08D0164B64
:102DD000984205D0154B984202D0154B984204D129
:102DE0004FF68F731A404B881A43124B984207D004
:102DF000114B984204D04FF6FF431A400B891A43F7
:102E000002804B68C3620B880385054B984202D051
:102E1000044B984201D18B7A038601238382704749
:102E20000000014000040140000400400008004090
:102E3000000C004000100040001400402DE9F0415B
:102E40003E48008806B23D48408807B20A2E01DAA3
:102E5000012409E0642E01DA022405E0B6F57A7F48
:102E600001DA032400E004240A2F01DA012509E035
:102E7000642F01DA022505E0B7F57A7F01DA032530
:102E800000E0042533462EA20A212E48FDF7FEF964
:102E90007C202C4908553B4629A20A212A48FDF7E7
:102EA000F5F97C202849485573202849087074207A
:102EB0004870612088707220C870742008717C206E
:102EC0004871062006E0811F1E4A515C49B21F4A24
:102ED0001154401CA11D8842F5DDE01D07E0011BD7
:102EE000C91F194A515C49B2184A1154401CE11DCE
:102EF00029448142F3DA6521E01D2844401C134A2D
:102F000011546E21E01D2844801C11546421E01DE1
:102F10002844C01C11547C21E01D2844001D11547C
:102F20000B490C48FFF7FAFA19200A49703948672B
:102F300001210848FFF726FBBDE8F08100000020D2
:102F4000256900001F1000208310002006100020BB
:102F500020000020706002400146002038E0B0F5FB
:102F6000FA7F18DA00EE900AF8EEE00A60EE200A26
:102F70009FED191AC0EE811ADFED180A61EEA00A62
:102F8000B0EE081AC0EE811AFCEEE10A10EE902AAB
:102F900021F810201BE000EE900AF8EEE00A20EE87
:102FA000201ADFED0D1AC1EE210AB0EE001A51EE23
:102FB000000A9FED0A1A60EE810AB0EE081AC0EE10
:102FC000811AFCEEE10A10EE902A21F81020401C34
:102FD000B0F57A7FC3DB70470000FA4300F07F450D
:102FE00021B1828942F40052828104E082894DF647
:102FF000FF731A40828170471AB1838A0B43838220
:1030000002E0838A8B438382704700002DE9FF47EB
:1030100005460E460024A14600BFA046B08900B177
:1030200000BF2C8A24F44054F08804432C82AC89DD
:1030300041F20C608443B0883189084371890843A8
:103040000443AC81AC8A24F44074B0890443AC825C
:103050006846FFF79DFC2048854202D01F48854204
:1030600002D1DDF80C9001E0DDF80890A88900F4A9
:10307000004040B109EBC90000EB0910316849007C
:10308000B0FBF1F707E009EBC90000EB091031686C
:103090008900B0FBF1F76420B7FBF0F004012009D0
:1030A000642101FB1078A88900F4004040B132206F
:1030B00000EBC800B0FBF1F000F00700044308E0AB
:1030C000322000EB08106421B0FBF1F000F00F009B
:1030D00004432C81BDE8FF8700100140001401402B
:1030E00000BFFEE70146002003E0002221F8102087
:1030F000401CB0F57A7FF8DB704703B401984100BB
:10310000009850EAC12018BF04204A0D18BF40F0B3
:10311000010040F2FF72B2EB515F08BF40F00200C5
:10312000012808BF052002B0704700000000000021
:1031300030B52DED048B81B0B0EE408AF0EE608AA0
:103140006A4651EC180B00F0A3FD00989FED329BEE
:103150007E300090002821DC53EC192B51EC180B29
:1031600001F0E4F81AD0002140F608004FF000000A
:10317000044651EC180B00F093FE08EE100A40F6DE
:10318000080004EA00014FF00000B5EEC08AF1EE3D
:1031900010FA04BF0220FDF70BF92DE00098FF287C
:1031A00030DB002108464FF0000000F4400553ECEE
:1031B000192B51EC180B01F0B7FA8CBF0024012435
:1031C0000220FDF7F5F89FED168A4DB1002C0CBFDB
:1031D0004FF400004FF48000A84218BF9FED118A01
:1031E000042108464FF00000002C01BFB1EE480A50
:1031F00001B0BDEC048B30BDB0EE480A01B0BDECAF
:10320000048B30BD51EC180B00F04AFE01B000EE0B
:10321000100ABDEC048B30BD00000000000000006F
:103220000000807FFFFF7F7F30B583B00446FDF74D
:10323000BAF89FED090B05468DED000B00222146E3
:103240006846FDF759F92846FDF7B2F89DED000BE9
:1032500003B030BD000000000000000000000000CE
:1032600030B540F2FF742DED048BF0EE608A18EE5D
:10327000901A85B0B0EE408A9FED2B9B05468DEDF0
:10328000008B34EA115147D053EC192B51EC180B39
:1032900001F04CF840D02A4651EC180B01F020FC0C
:1032A00041EC180B18EE900A8DED008B34EA1050AB
:1032B0001CD053EC192B51EC180B01F037F82BD123
:1032C0000220FDF775F800F0ABFC10EE901A18EE36
:1032D000900A8DED020B8DED008B61F31E000390C3
:1032E0009DED020B05B0BDEC048B30BD0220FDF757
:1032F0005FF800F085FC10EE901A18EE900A8DED44
:10330000020B8DED008B61F31E0003909DED020B0F
:1033100005B0BDEC048B30BD05B0B0EE480AF0EE50
:10332000680ABDEC048B30BD000000000000000006
:1033300010B52F499FED2C1B2DED020B84B0059885
:1033400020F000408842DCBF00209DED040B32DD00
:103350002849884209D1049840B94FF00100FDF78F
:1033600027F800F03DFC06B010BD05DB9DED040B19
:1033700000F02AFC06B010BD68469DED040B00F07D
:103380003BF810F0030011D0012818D09DED021B6E
:103390009DED000B02281AD000F04AFA51EC100BF8
:1033A00000F072FD06B041EC100B10BD9DED021B4C
:1033B0009DED000B012000F06FFB06B010BD9DEDF0
:1033C000021B9DED000B00F033FA06B010BD01208A
:1033D00000F062FB51EC100B00F056FD06B041EC22
:1033E000100B10BD000000000000000000000000F5
:1033F000FB21E93F0000F07F2DE9F14F04462DED60
:10340000020B2DED088B8AB09FEDE70B80ED020BD0
:10341000139EE74826F0004585420ADC9DED120B1D
:10342000002084ED000B0AB0BDEC088B03B0BDE8B2
:10343000F08FE0489FEDE0AB9FEDE1BBA84247DD98
:10344000E14F9FEDE39B9FEDE48B9DED120B53EC61
:103450001A2B51EC100B002E1CDD01F0A7F941ECEA
:10346000100BBD4208D053EC1B2B51EC100B01F09C
:103470009DF9C4E900010BE053EC192B51EC100B42
:1034800001F094F953EC182B01F090F9C4E9000114
:103490000120C8E700F036FD41EC100BBD4208D01A
:1034A00053EC1B2B51EC100B00F02CFDC4E9000178
:1034B0000BE053EC192B51EC100B00F023FD53ECF7
:1034C000182B00F01FFDC4E900014FF0FF30AAE700
:1034D000C348A84279DB9DED120B51EC100B00F0B4
:1034E000C9FB41EC180B9FEDC00B53EC102B01F006
:1034F0001DF89FEDBF1B53EC112B00F003FD00F0F6
:1035000051FF074600F0ABFF41EC190B53EC1A2BAF
:1035100001F00CF853EC182B01F03CF941EC180BBE
:1035200053EC1B2B51EC190B01F000F8DFF8C8A28B
:1035300041EC100B4FEA15580125FA4453EC102BBF
:1035400051EC180B01F032F9032DC4E900013DD014
:10355000C1F30A5005EB4511A8EB00001139814277
:1035600034DA0AEB051BB0EE48AA9BED000BF0EE37
:1035700068AA53EC102B51EC190B00F0D7FF41EC6B
:103580001B0B51EC1A0B53EC1B2B01F00FF941EC08
:10359000180B51EC1A0B53EC182B01F007F953ECF4
:1035A0001B2B01F003F99BED020B41EC1A0B53ECC2
:1035B000102B51EC190B00F0B9FF53EC1A2B01F052
:1035C000F5F841EC100B6D1CB8E70EE0002EA8BF1B
:1035D0003846BFF628AF94ED000B51EC100B00F00D
:1035E00053FCC4E9000178421DE7C6F3130040F420
:1035F000801EC6F30A50A0F2F530471100F01F05F7
:10360000C5F12000DDF848B0089000200690079032
:103610000520EC467949002D07EB0002794408BFEC
:1036200051F8221009D051F8223001EB8201AB4051
:103630004A68089922FA01F11943A1FB0E26A1FB61
:103640000B131A449A4234BF0123002303EB0608EC
:103650000CEB8003D3E901A60E448E4234BF012156
:10366000002192448A4411B1924502D903E0924567
:1036700001D2012100E00021C3E901A641444CF838
:103680002010011EA0F10100C4DC029800F10050DE
:10369000850F0298DDE903678000DDF8148000F0F3
:1036A000DEFE41EC1A0B304600F0F0FE9FED541B9D
:1036B00053EC112B00F03AFF41EC1B0B384600F0A5
:1036C000E5FE9FED511B53EC112B00F02FFF41EC59
:1036D000180B404600F0DAFE9FED4D1B53EC112B0A
:1036E00000F024FF41EC190B51EC180B53EC192B93
:1036F00000F008FC53EC1B2B00F004FC53EC1A2BDD
:1037000000F000FCCDE90801002008909DED080BB9
:1037100053EC1A2B51EC100B01F048F853EC1B2B17
:1037200001F044F853EC182B01F040F853EC192B3E
:1037300001F030F89FED381B53EC112B00F0F6FE32
:103740009FED370B41EC180B53EC102B9DED080B44
:1037500051EC100B00F0EAFE53EC182B00F0D2FBFA
:103760009FED310B41EC180B53EC102B9DED080B2A
:1037700051EC100B00F0DAFE53EC182B00F0C2FBFA
:1037800041EC100B139810F0004F06D06D4251EC35
:10379000100B00F079FB41EC100B284684ED000B78
:1037A00041E60000000000000000000000000000F2
:1037B000FB21E93F7CD9024000004054FB21F93F46
:1037C0003163621A61B4D03DFB21F93F0000000073
:1037D0000000601A61B4D03D7370032E8A19A33BB8
:1037E000FB2139410000000083C8C96D305FE43F10
:1037F000000000000000E03F6A160000B81500005D
:10380000000000000000103E000000000000103C1E
:10381000000000000000103A182D4454FB21F93D2F
:103820003326A611460B113C00000054FB21F93D44
:1038300010B52DED040B2DED088B82B0B0EE419A42
:10384000F0EE619A0B9820F000449FED4BABB4F181
:10385000795F11DA9DED0A0B51EC100B00F0A2FD1F
:10386000002801BFB0EE4A0AF0EE6A0A02B0BDECD1
:10387000088B04BF04B010BD9DED0A0B53EC102B58
:1038800051EC100B00F052FE41EC180B3C480621A5
:10389000B0EE480AF0EE680A784400F081F853EC84
:1038A000182B51EC100B00F041FE9DED0A0B41EC82
:1038B0001B0B53EC192B51EC100B00F037FE41ECB5
:1038C000190B53EC1B2B51EC180B00F02FFE53EC93
:1038D000192B00F06BFF9FED2C0B41EC190B53ECF7
:1038E000102B51EC180B00F021FE41EC100B284876
:1038F000844210DA53EC192B51EC100B00F056FFF8
:1039000053EC1A2B00F046FF41EC100B02B0BDEC5B
:10391000088B04B010BD1F48A042BCBF9FED1E1B0A
:103920008DED001B06DBA4F5001001900020009037
:103930009DED001B51EC100B53EC112B00F036FFEA
:103940009DED000B41EC180B53EC102B51EC1A0BB6
:1039500000F02CFF41EC1A0B53EC192B51EC180B17
:1039600000F024FF53EC1A2B00F014FF41EC100B75
:10397000CCE7000000000000000000000000F03F65
:10398000DC12000000000000000000000000E03F2A
:103990003333D33F0000E93F000000000000D23F76
:1039A00070B504462DED028B4D1E00EBC500B0EE48
:1039B000408AF0EE608A90ED000B35F0060017D0DB
:1039C00053EC182B51EC100B00F0B0FD41EC100B38
:1039D0006D1E04EBC50090ED001B51EC100B53EC79
:1039E000112B00F08FFA41EC100B35F00600E7D1F7
:1039F000022D36D0042D1CD0062D1CBFBDEC028B31
:103A000070BD53EC182B51EC100B00F08FFD94EDB2
:103A10000A1B53EC112B00F075FA53EC182B00F035
:103A200085FD94ED081B53EC112B00F06BFA41EC73
:103A3000100B53EC182B51EC100B00F077FD94EDAC
:103A4000061B53EC112B00F05DFA53EC182B00F021
:103A50006DFD94ED040B53EC102B00F053FA41EC88
:103A6000100B53EC182B51EC100B00F05FFD94ED94
:103A7000021B53EC112B00F045FA53EC182B00F00D
:103A800055FD94ED001B53EC112B00F03BFABDECFF
:103A9000028B41EC100B70BD31B504462DED040BCB
:103AA0002DED0A8BB0EE41BAF0EE61BA0B989DEDA8
:103AB0000A0B20F00040B0F1795F0DDA51EC100BE9
:103AC000FFF71BFB042808BF00F0AAF89DED0A0BC6
:103AD000BDEC0A8B05B030BD53EC102B51EC100B34
:103AE00000F024FD41EC180B9DED0A0B53EC182B54
:103AF00051EC100B00F01AFD41EC190B2C48B0EE04
:103B0000480AF0EE680A05217844FFF749FF9FED67
:103B10002ACBB0EE40AAF0EE60AA9CB353EC1C2B6B
:103B200051EC190B00F002FD41EC1C0B53EC1A2B6D
:103B300051EC190B00F0FAFC9FED210B41EC190B35
:103B400053EC102B51EC1B0B00F0F0FC53EC192B39
:103B500000F02CFE53EC182B00F0E8FC53EC1B2B70
:103B600000F024FE53EC1C2B00F020FE9DED0A1B00
:103B700053EC112B00F00EFEBDEC0A8B05B041ECAE
:103B8000100B30BDFFE753EC1A2B51EC180B00F073
:103B9000CDFC53EC1C2B00F0B5F953EC192B00F0C5
:103BA000C5FC9DED0A1B53EC112B00F0ABF9E3E7CC
:103BB0006411000000000000495555555555C5BF1A
:103BC000000000000000E03F10B553EC102B51EC5A
:103BD000100B00F097F941EC100B10BD0000000035
:103BE0009FED050B10B553EC102B51EC100B00F0B2
:103BF00045FA41EC100B10BD000000000000000071
:103C00009FED050B10B553EC102B51EC100B00F091
:103C10008DFC41EC100B10BD000000000000007096
:103C20009FED050B10B553EC102B51EC100B00F071
:103C30007DFC41EC100B10BD0000000000000010E6
:103C400010B5044691ED000BFFF772FA84ED000AFF
:103C500010BD10B5044690ED000B0846FFF700FBC1
:103C600084ED000B10BD30380A2801D201207047C6
:103C70000020704782B0CDE9000121F000400190A2
:103C80009DED000B02B051EC100B704700000000DE
:103C900010B582B01446CDE900010023009A2360DC
:103CA000194B21F0004098422ADA024328D0B0F59F
:103CB000801FA8BF226810DA9FED150B53EC102B64
:103CC0009DED000B51EC100B00F030FCCDE9000134
:103CD0006FF0350221F0004022600F4B6FF31E5150
:103CE00003EB20501044206041F0FF5040F00050A2
:103CF00001909DED000B00BF02B051EC100B10BD08
:103D00009DED000BF8E700000000F07F00000000D0
:103D1000000000000000504302FCFFFF3B48006829
:103D20006422B0FBF2F1481EB0F1807F00D31BE0AB
:103D3000481E4FF0E022506150170F22002807DA8A
:103D400013071D0E324B00F00F04241F1D5503E016
:103D500013071C0E2F4B1C5400BF00204FF0E02215
:103D600090610720106100BFFDF772FEFDF7EEFEC7
:103D7000FDF76CFFFDF7D0FFFEF78AF8FEF768F855
:103D8000FEF732F8FEF7A4F82348FDF759FE234862
:103D9000FDF756FE224890ED000A2248FEF7E4FEA9
:103DA0001F4890ED000A1F48FEF762FF1C4890ED87
:103DB000000A1C48FFF7D0F8194890ED000A19488E
:103DC000FEF750FD1748FFF78DF9174890ED000AF0
:103DD0001648FEF7C9FE144890ED000A1348FEF796
:103DE00047FF114890ED000A1048FFF7B5F80E485C
:103DF00090ED000A0D48FEF735FD0C48FFF772F90B
:103E0000FEF72CF9FEF7E8F900BFFEE71C000020E2
:103E100018ED00E000E400E0002001400021014036
:103E20000C0000204800002014000020180800208A
:103E300010B500290AD00878002807D00548784432
:103E4000FCF774FE002801D0002010BD0248784421
:103E500010BD00001E0F0000160F000010B5002955
:103E60000AD00878002807D005487844FCF75EFEA1
:103E7000002801D0002010BD0248784410BD000089
:103E80000E0F0000060F000081F00041704780F027
:103E90000040704721F00041704720F0004070471B
:103EA00021F00042A2F16052B2F5801F01F0004300
:103EB00028BFD2F17F6C0BD95FEA001C43EAC20233
:103EC00042EB507018BF704728BF20F001007047C8
:103ED000B2F5801FBCBF184670474FEA410C1CF575
:103EE000001F02D2084600F0C1BD70B500F0C8FB4B
:103EF00000000089FFF7F6BF4FF00040A0F58000FA
:103F00007047000010B591EA030F48BF83F00043EB
:103F100000F15484841A71EB030C05D2121943EB9F
:103F20000C03001B61EB0C01DFF824E14FEA115494
:103F3000A4EB135C1EEA430F18BF9EEA445F73D0E4
:103F400023EA0E03DCF1200E21EA045143F480132E
:103F500032D322FA0CFE10EB0E0023FA0CFE41EBDA
:103F60000E01CCF1200E03FA0EFE10EB0E0051F103
:103F70000001B1F5801FCCF1200E32D201EB0451CB
:103F800012FA0EF2BDE8104058BF7047401C38BF0F
:103F90005FEA420218BF7047002814BF20F00100FA
:103FA00041F100014FEA410313F5001F38BF70478C
:103FB000A1F1C04100F0B2BB012A43EB0302ACF116
:103FC000200CDCF11F0E32BF4FF0000E23FA0CF371
:103FD00010EB030041EB0451B4EB115FD0D0A1EB27
:103FE000045101F5801149085FEA300001EB0451EA
:103FF0000ED350F1000038BF12FA0EFE08D1BDE812
:104000001040C9E7401C38BF5FEA4202CAD1C3E78B
:10401000BDE810404FEA410313F5001F38BF704759
:10402000A1F1C04100F07ABB9EEA445F08D011EADA
:104030005E0FBDE8104004BF01F000410020704752
:10404000BDE8104070B500F01BFB00BF64FBBE3E36
:104050000000E0FF02494FF0000000F00FBD00BF7C
:104060000000F87F491058BFC1F140415B1058BFB4
:10407000C3F140438B42EFF3008070472DE9C0410C
:1040800030B4DFF8A0C23CEA111418BF3CEA1314A4
:1040900000F0EC8081EA03051CEA111444EAD574AF
:1040A00018BF1CEA131500F0C780A4EB05044FF0FD
:1040B000004545EAC12145EAC32341EA505143EA9C
:1040C000525304F17F74994204F500344FEAC02042
:1040D0004FEAC22208BF904200F09C804FEA13656D
:1040E0000FF24016765D4FEA134506FB05F7C7F160
:1040F000807706FB07F74FEAD737A7FB03687642BE
:10410000C8F58038A7FB06CE38BFA8F1010807FB29
:1041100008E64FF0000EA6FB028CE6FB03CEDCF1B6
:10412000000CCEF1004E38BFAEF1010EA6FB0C58CC
:104130004FF000074FF00005E6FB0E87A1FB08C615
:10414000A0FB07CE16EB0E0645F10005E1FB076567
:1041500015F1E04E7EBFA4F580345FEA46066D415E
:1041600016F1800745F100054FEA17274FEA06666A
:1041700047EA0567A6F1DE46B6F1805F4FEA1525EE
:104180001FD9384624F0010C05EBC471BCF1FE6F59
:1041900001EB0C1102D8F0BCBDE8008124425CBFE9
:1041A00001F5801E9EEAC47F02D4F0BCBDE8008108
:1041B000244238D4F0BCA1F1C041BDE8004100F078
:1041C000ADBA4FEAD22242EA43524FEAD323A7FBC9
:1041D00002864FEAD02040EA415007FB03661EEA00
:1041E0000E0F4FEAD12105FB026658BFA6EB005621
:1041F000B6EB00564FEA520E4EEAC37E18EB0E0E97
:1042000056EB530EBDD518EB02085E417F1C55F1ED
:104210000005B6E74FF480154FF000074FF0000699
:104220004FF00008ADE7F0BC4FF0000001F1C041D5
:1042300001F00041BDE8008111EA0C1F0CEA1315E2
:1042400000D00CE013EA0C1F00F025804FF00000B6
:10425000F0BC81EA030101F00041BDE80081F0BC3F
:10426000BDE8004181EA030100F058BAF0BCBDE8A6
:10427000004170B500F004FA097EFC3E00F007B87A
:1042800081EA03014FF0000001F00041704781EA2C
:10429000030100F043BAF0BCBDE800414FF000005C
:1042A00021497047FFFDFBF9F7F5F4F2F0EEEDEB75
:1042B000E9E8E6E4E3E1E0DEDDDBDAD8D7D5D4D324
:1042C000D1D0CFCDCCCBCAC8C7C6C5C4C2C1C0BF70
:1042D000BEBDBCBBBAB9B8B7B6B5B4B3B2B1B0AF76
:1042E000AEADACABAAA9A8A8A7A6A5A4A3A3A2A15A
:1042F000A09F9F9E9D9C9C9B9A9999989797969515
:1043000095949393929191908F8F8E8E8D8C8C8BB0
:104310008B8A898988888787868585848483838238
:10432000828181800000FF070000F87F51EA030CC2
:1043300017D41CF5801F58BFBCF5801F00F1068004
:10434000994218BF704708BF9042704707D711F5D0
:10435000801F58BF13F5801F19D4994270478942B6
:1043600070471CF5801F08D5BCF5801FF7D58B4220
:1043700018BF704708BF824270474FF4001C1CEB07
:10438000410F38BF1CEB430F01D28B42704770B511
:1043900000F076F9922449004FF000514FF080531D
:1043A000FFF760BE4FEA41034FEA5353A3F5806322
:1043B000D3F11E03C8BFD3F1210C0CDD4FF0004236
:1043C00042EAC12242EA505232FA03FC8CEAE17C12
:1043D000ACEBE1707047102BC4BF0020704703F5B1
:1043E000787CBCF1FF3F04D06FF0004282EA2100EC
:1043F000704770B500F044F949922480002070475E
:10440000F2E700004FEA1153A3F58063D3F11E03D6
:10441000A8BFD3F1200C08DB4FF0004242EAC122D2
:1044200052EA505232FA03F0704709420BD4102B73
:10443000C4BF0020704703F5787CBCF1FF3F05D076
:104440004FF0FF3070474FF00000704770B500F03C
:1044500017F900BF4992248000207047F0E710F060
:10446000004248BF4042B0FA80F310FA03F10AD08C
:10447000C3F11D0303F580634FEA415002EB035281
:1044800002EBD12170474FF000007047B0FA80F383
:1044900010FA03F10AD0C3F11D0303F580634FEA5C
:1044A00041504FEA035202EBD12170474FF0000018
:1044B0007047000051EA030C17D41CF5801F58BF49
:1044C000BCF5801F00F10680994218BF704708BFF5
:1044D0009042704707D711F5801F58BF13F5801F12
:1044E00019D499427047894270471CF5801F08D53E
:1044F000BCF5801FF7D58B4218BF704708BF8242BA
:1045000070474FF4001C1CEB410F38BF1CEB430FEE
:1045100001D28B42704770B500F0B2F89224490086
:104520004FF000514FF08053FFF79CBDDFF848C1BA
:1045300070B51CEA111E1EBF1CEA13159EEA0C0F73
:1045400095EA0C0F00F06F8081EA030423EA4C1314
:104550004EEAD47E21EA4C1141F4801143F48013D9
:10456000AE44A1FB024CA0FB0365AEF17F7E361981
:1045700055EB0C05A1FB034C4CF10003A0FB021C06
:1045800016EB0C06654153F10003094218BF46F0D3
:10459000010613F4007F0BD14FEA03314FEA0530D7
:1045A000340341EA155140EA16506FF003020AE065
:1045B0004FEAC3214FEAC520F40241EA555140EACF
:1045C00056506FF0020202EB2E4201EB025585EAD3
:1045D000CE710AD05FEA440C18BF24F0004450F1B9
:1045E000000041F1000120EAD47040F2FE7C6245F7
:1045F00000D270BDA84214BF4FF080444FF0404439
:10460000002E08BF0024BEF1806FA8BFA1F1C041F9
:10461000BDE8704080F282804FF0000001F1C0419F
:1046200001F0004170479EEA0C0F0CEA131518BF09
:1046300095EA0C0F06D04FF0000081EA030E0EF051
:10464000004170BD00F01CF88900013E00F007B881
:1046500000F009B84FEA430C5FEA5C5C08D081EADD
:10466000030100F05BB84FEA410C5FEA5C5CF6D1F5
:104670004FF00000014970470000FF070000F87F7D
:104680000EF1020E2EF0030E5EF8046B364205D4D6
:10469000012A43EB030515F5001F12D8012841EB51
:1046A000010C1CF5001F0CD80ED14FEAD17C15F57A
:1046B000001F0CEB4C0C0CF1020C08BF4CEBD37C34
:1046C00004E04FF0080C01E04FEAD37C0CEB4C0502
:1046D00026FA05F606F00706B6F1040C06D20EEB34
:1046E000860CBDE870404CF0010C6047DFE80CF030
:1046F000090B02024FF000414FF00000A1F500212C
:1047000070BD19461046012851EB010418BFD4F5BD
:10471000001484BF002001F0004170BD0808A0F51E
:1047200000114FEA3101704753EA010C17D41CF510
:10473000801F58BFBCF5801F00F106808B4218BF58
:10474000704708BF8242704707D713F5801F58BFD4
:1047500011F5801F19D48B4270479B4270471CF59E
:10476000801F08D5BCF5801FF7D5994218BF704748
:1047700008BF904270474FF4001C1CEB430F38BF3A
:104780001CEB410F01D2994270470FB40CBC03BC23
:10479000FFF7C1BE91EA030F10B581F000413FF56C
:1047A000B9AB83F0004300F009B8000010B591EAFE
:1047B000030F48BF83F000433FF5ACAB841A71EBA5
:1047C000030C07D212198CF0004C43EB0C03001BB6
:1047D00061EB0C01DFF8A4E14FEA1154A4EB135C88
:1047E0001EEA430F18BF9EEA445F00F0B08023EA40
:1047F0006E03524221EA0451C3EB6E0338BF5B1EC5
:10480000DCF1200E25D322FA0CFE10EB0E0043FA49
:104810000CFE41EB0E01CCF1200E03FA0EFE10EB64
:104820000E0051F10001CCF1200E29D412FA0EF243
:1048300001EB0451BDE8104058BF7047401C1CBF3D
:10484000B2F1004F704700280CBF491C20F0010056
:10485000704712EB020E43EB030218BF4FF0010E3C
:104860004EEA4202ACF1200CDCF11E0E54D943FAA0
:104870000CFE10EB0E0051F1FF31CCF11E0ED5D520
:104880000EF1010E12FA0EFE404141EB010101EB67
:10489000445C5FEA5C5C10D910EBDE7001EB045104
:1048A00038BFBEF1004FBDE8104018BF7047002868
:1048B0000CBF491C20F00100704730D24FEAD42CC5
:1048C00011F5001124F400641BD0B1FA81F20B3A07
:1048D000A41AA41ED2F12003914030FA03F3194325
:1048E000904001EBCC71002C01EB0451BDE810406D
:1048F000A8BF704701F1C0414FF0000001F0004136
:104900007047B0FA80F310FA03F100D110BDE41A39
:10491000173C4805C90AE4E701EB045110BD4910F2
:1049200001EB0451BDE810404FEA300002E04FF0C7
:10493000000170474A0008BF0042F8D0B2F5001FDE
:1049400028BF704701F000414FF0000070479EEA19
:10495000445F07D011EA5E0FBDE8104004BF00219C
:1049600000207047BDE8104070B5FFF789FE00BF1A
:1049700040DFF63E83F00041104670470000E0FF44
:1049800043004FEAD30C4FEA3C0C43401FBF4007A3
:104990000CF1605113F0FE4F70471CF0006F03D113
:1049A00000200CF0004170470CF0004343EA5070C7
:1049B00010B540EACC0000F00EF800BF00000092F5
:1049C0004FEA0001FFF7AABE4FF000414FF0000090
:1049D000A1F5002170470EF1020E2EF0030E5EF8D5
:1049E000044B244204D44FEA4102B2F17F4F11D864
:1049F0004FEA4003B3F17F4F0CD80ED14FEAD07C81
:104A0000B2F17F4F0CEB4C0C0CF1020C08BF4CEBDD
:104A1000D17C04E04FF0080C01E04FEAD17C0CEBB4
:104A20004C0324FA03F404F00704B4F1040C06D296
:104A30000EEB840CBDE810404CF0010C6047DFE841
:104A40000CF0070802024FF00040A0F5800010BDF6
:104A50000846420018BFD2F1807288BF00F00040C3
:104A600010BD4FF04070E1EE100A7047FF2141EA9F
:104A7000D050C00570474FF0000070470CF00F0396
:104A8000092B08BF082000F05F800A2B0BD0082BF1
:104A900018BF704708BF1CF0400F0AD04FF000004D
:104AA0004FF0000170471CF0400F18BF4FF000405E
:104AB00070471CF0100F08D020F0704300F07F42C8
:104AC00042EAD3014FEA4370704700F0604021F0A2
:104AD0007F4242EA000201F07F4040EA7270704774
:104AE0004FF0FF0C4CF4E06C1CEA11531CBF9CEA25
:104AF000030C9445C2BFDA4201EB02517047002B10
:104B00000DD0BCF1000F0FD0002A01F00041A4BF6E
:104B100041F0E04141F07F614FF00000704701F04B
:104B200000414FF00000704750EA01334FF09B0CFA
:104B300018BF4CF0806C7FF48DAA7047FBF796BECF
:104B4000FCF7AAB8FCF738BA1CF4801F11D01CF48B
:104B5000E02F03D06FEACC31490070474FF040504E
:104B6000EFF3008222F0704242EA000282F30088F2
:104B700070474FF0000070474C5555555555A53FAF
:104B80007751C1166CC156BF9015CB19A001FA3EE2
:104B9000AD529C804F7E92BEC4B1B4BD9EEE213E0C
:104BA000D43888BEE9FAA8BD00004054FB21F93F83
:104BB0003163621A61B4D03D0000601A61B4D03D27
:104BC0007370032E8A19A33B0000002E8A19A33BA1
:104BD000C14920259A837B390000000000000000B5
:104BE0006E83F9A22915444ED15727FCC0DD34F558
:104BF000999562DB4190433CAB6351FE61C5BBDEDE
:104C00003A6E24B7E0D24D42EA2E49061C92D109F1
:104C10001CEB1DFE3EA729B1F53582E88444BB2E6E
:104C200026709CE9417E5FB439D69139F4395383BB
:104C30008B5F849C3B28F9BDFF97F81F0F9805DE1A
:104C40008B112FEF1F6D0A5ACF7E366DB709CB2718
:104C5000663F464F2DEA5F9EC7BA27757BF1E5EBAD
:104C6000F739073DEA92528AB15FFB6B085D8D1FF1
:104C7000A6F810111111813FD561C119A0012ABFF9
:104C80007DFEB157E31DC73EEB9C2B8AE6E55ABE7D
:104C90007CD5CF5A3AD9E53D02400000000000A083
:104CA0000000000005400000000000C800000000F7
:104CB0000C4000000000409C000000001940000073
:104CC0000020BCBE0000000034400000BFC91B8EA5
:104CD00000000004B5400000504BCFD06607E2CF83
:104CE000010000006C4100003E8251AADFEEA734B3
:104CF00001000000D9420000DCB5A0E23A301F9765
:104D0000FFFFFFFFB4450000FD25A0C8E9A3C14F88
:104D1000FFFFFFFFFF3F00000000008000000000D9
:104D2000FF3F00000000008000000000884E0008E7
:104D30000000002048000000C4010008D04E000818
:104D40004800002058190000E001000800000000A1
:104D50000000F07FFFFFFFFFFFFFEF7F1C00000060
:104D600043000000F8FFFFFF0C0000000E000000F1
:104D70000F0000002E0000001001000043000000A2
:104D8000F8FFFFFF0040404040404040404041416C
:104D90004141414040404040404040404040404010
:104DA00040404040400502020202020202020202AA
:104DB00002020202022020202020202020202002A7
:104DC0000202020202029090909090901010101037
:104DD00010101010101010101010101010101010D3
:104DE0000202020202028888888888880808080867
:104DF0000808080808080808080808080808080833
:104E0000020202024000000000000000000000005A
:104E10000000000000000000000000000000000092
:104E20000000000000000000000000000000000082
:104E30000000000000000000000000000000000072
:104E40000000000000000000000000000000000062
:104E50000000000000000000000000000000000052
:104E60000000000000000000000000000000000042
:104E70000000000000000000000000000000000032
:104E80000000000000000000000000000000000022
:104E90000000000000004040CDCCCC3D0000404070
:104EA000CDCCCC3D007A030A0000000000000000D9
:104EB00001020304060708090000000000000000CA
:104EC00000000000010203040102030406070809B0
:040000050800018965
:00000001FF
